S01300004E534C5F43796C6F6E49492E737265632E
S113000014C02CC02BC02AC029C028C027C026C0B9
S113001025C024C023C022C021C020C01FC01EC0D0
S11300201DC01CC01BC01AC019C011241FBECFEDB7
S1130030CDBF10E0A0E6B0E0E8E0F2E002C0059039
S11300400D92A436B107D9F720E0A4E6B0E001C0D0
S11300501D92A636B207E1F702D0D4C0D1CF89E011
S11300608EBD88EE93E09BBD8ABD89B7806489BF4D
S11300708FEF81BB10BA80E182BB17BA1092650082
S113008010926400D5E0C6E057D087BB55D088BB3A
S113009053D087BB51D082BBC150B1F7D15099F72F
S11300A0D5E0F1CF8F929F92AF92BF92CF92DF9221
S11300B0EF92FF92CF93DF93EC01688179818A817B
S11300C09B81611571058105910521F464E279ED47
S11300D08BE597E02DE133EF41E050E055D0490145
S11300E05A0127EA31E440E050E035D06B017C014D
S11300F02CEE34EF4FEF5FEFC501B4012CD0DC01DF
S1130100CB018C0D9D1DAE1DBF1DB7FF03C0019714
S1130110A109B04888839983AA83BB839F77DF9121
S1130120CF91FF90EF90DF90CF90BF90AF909F90D2
S11301308F900895B7DF089580E690E0B3DF0895C7
S1130140A0E0B0E08093600090936100A09362000F
S1130150B09363000895EE27FF27AA27BB2708C0A2
S1130160A20FB31FE41FF51F220F331F441F551F97
S1130170969587957795679598F37040A9F70097BA
S113018099F7BD01CF010895052E97FB16F400944D
S11301900FD057FD05D014D007FC02D046F408C098
S11301A050954095309521953F4F4F4F5F4F08959F
S11301B090958095709561957F4F8F4F9F4F0895CF
S11301C0A1E21A2EAA1BBB1BFD010DC0AA1FBB1F57
S11301D0EE1FFF1FA217B307E407F50720F0A21BC9
S11301E0B30BE40BF50B661F771F881F991F1A9436
S11301F069F760957095809590959B01AC01BD0160
S10B0200CF010895F894FFCF2B
S107020801000000ED
S9030000FC
